:020000040800F2
:10000000480A002011600008F95A0008FB5A00084D
:1000100000000000000000000000000000000000E0
:10002000000000000000000000000000FD5A000871
:100030000000000000000000FF5A0008015B0008FB
:10004000670C0008000000001F1C0008F7200008D3
:10005000032E0008B32E0008432F0008F33F0008CA
:10006000000000001D5B00081D5E0008D35F000853
:10007000DF5F000821600008236000080000000026
:10008000275B000800000000000000002560000859
:100090000000000027600008296000082B600008AD
:1000A0002D6000082F60000831600008295B0008FF
:1000B00033600008000000000000000000000000A5
:1000C000C06A704710B50223012901D1002120E048
:1000D000042901D101211CE0102901D1022118E0DD
:1000E000402901D1032114E0DC01A14201D1042106
:1000F0000FE05C02A14201D105210AE0DC02A1422D
:1001000001D1062105E0DC03A14201D1072100E075
:10011000082100BF04A4615C046A8B409C438A40B0
:100120002243026210BD000000020406080A0C10FF
:100130001400000010B50822012901D1002120E09F
:10014000042901D101211CE0102901D1022118E06C
:10015000402901D1032114E05301994201D1042126
:100160000FE0D301994201D105210AE053029942DF
:1001700001D1062105E05303994201D1072100E096
:100180000821183004A35B5CC018036805A4615CF7
:100190008A401A43026010BD000000000404043CC1
:1001A0003C000000000008000000080008000000FB
:1001B0008163704701647047BB48704770B5BB4CA2
:1001C000E06A0021A1633230206400221021200067
:1001D000FFF778FFA60C022231002000FFF772FF24
:1001E000012560692843606110212000FFF7A2FF0C
:1001F00031002000FFF79EFF20688021014321602D
:10020000206828432060206A102101432162206A6F
:100210000643266260690543656170BDF1B50E0055
:10022000FFF74EFF0700791C9F4C642530006428BF
:1002300007DB323739000098FFF7BAFF7A202554E0
:1002400017E015280ED348433230642100F0F0FC4B
:10025000874200D9070039000098FFF7A9FF7A20EC
:10026000265406E000210098FFF7A2FF00207A2123
:1002700060540020F2BDF8B506000C00FFF720FF27
:100280000700791C6425642C06D300213000FFF799
:1002900091FFCB48057019E0152C0FD3281B48435C
:1002A0003230642100F0C4FC874200D907003900D5
:1002B0003000FFF77FFFC248047007E03237390093
:1002C0003000FFF777FF0020BD4908700020F2BD25
:1002D00000218163C0480170704710B50400FFF72A
:1002E000EFFE010032312000FFF764FF0020B44927
:1002F000087010BDF8B5050000D16B4DE421280051
:1003000000F0B2FC012028700027AF606748286227
:100310002F616F702F756F60C548E8606F75AF70A3
:100320002F778C204000A884E884B42080002885A2
:10033000C048A8852E216F5464202F21685428219D
:100340003023E9546F861422AA86BB4B1B6DAB6326
:100350000F232A242B5596246400AC87EC87C40015
:100360004026AC53B54C4426AC534626AF554724E3
:100370002855482029544A216F524C202A52B84807
:10038000006D286542202B540024009500984821D8
:1003900061434018050054352F706F70AF80AF7007
:1003A0007A2287542F72AF8406007C36A0493160D0
:1003B000EF807760378177812F6237617761963080
:1003C00000F05AFC6F61AF61AF83EF83EF602F6184
:1003D000F760641C012CD9DDF1BD804948225043EF
:1003E00008180021C16681660200703211805180B8
:1003F000016641667047F8B506003400022C1CDA2D
:10040000764D286A182161436F18310004D12F21DD
:10041000695CFFF703FF03E02F21795CFFF72BFFF7
:100420004820444328190121542281542F21795C0A
:100430007A2281543000FFF7D0FFF1BD38B50100BA
:100440000C00022C11DA654D286A002902D1FFF751
:100450003FFF01E0FFF741FF4820444328190021F6
:100460005423C154C1677A22815431BD02280ADA6B
:100470000D4AE1231B014B43D360934B594348235F
:1004800058431018C16770479C494278120203789C
:1004900013430A2253430B60C27812028078104340
:1004A0000A22504388647047200400200004004062
:1004B000FEB505002E00022E5EDA68460170474C3C
:1004C000A068A061182070432718684600780A21A8
:1004D0004143F9842800FFF780FF48204643A619CE
:1004E00030008830816889080268914201D3002178
:1004F00000E0511A016069460A78016868B200F0AC
:10050000A0FCB884300096300290706F019090206B
:10051000305800908C20335824203A5E5820315EA9
:1005200068B200F0AEFB7067280004D12420205E82
:1005300000F0FEFC03E02420385E00F007FD94216B
:10054000705268B200F08EFC302178540A21002DE0
:1005500009D12620205E00F057FBC1B2606F00F089
:1005600045FCA084F7BD2620385E00F04DFBC1B2EB
:10057000706F00F04DFCB884F7BD0200022A00DB6A
:10058000704710B50A234B431449182454430C19DF
:10059000A384E38400234824624389184B67FFF750
:1005A0001CFF10BD41780902027811430B4A918467
:1005B000D184C1780902807801439187D18770473F
:1005C000E2040020022805DA044A182358431018D0
:1005D00030228154704700009A040020200400203B
:1005E0000200022800DB704738B58B4C4823434398
:1005F000E3187A2559551825684320182F254155A9
:10060000206A54241B5D012B07D0002A02D1FFF77A
:100610005FFE31BDFFF761FE31BD002A02D1FFF759
:10062000FDFD31BDFFF727FE31BD7B4908757047E1
:1006300060540000B80B0000E8560008AC0D000044
:100640000100022800DB704780B57348006A00296A
:1006500002D1FFF73DFE01BDFFF73FFE01BD0000E7
:100660007C5800086C48007D70476B491822504345
:1006700008182421405E70476749482250430818F3
:100680005821405E7047644948225043081854215D
:10069000405C70476048007870475F4918225043BB
:1006A0000818302140567047A24948707047A14849
:1006B000407870479F4A4823584310185523C15427
:1006C0000020507070470000C40E000038B50024B0
:1006D000984DE0B24821484328185521405C052830
:1006E00002DBE0B2FFF7AAFE641CE0B20128F0DDF5
:1006F0000320687001F048FA31BD00009C0400201E
:1007000070B58C4C207802281AD00125022655207D
:10071000205C042803DD0020FFF790FE04E00020A9
:10072000FFF769FE267065609D20205C042828463E
:1007300002DDFFF783FE03E0FFF75DFE26706560D4
:10074000002070BD022807DA7A4948225043081871
:100750008C300021016041607047022800DB704747
:1007600010B5744B4824604318188C300160426007
:1007700010BD38B500246F4D2878012808D000201E
:10078000FFF75CFE0120FFF759FE012028706C6026
:100790002C7731BD0100012900DD704780B5654A25
:1007A00048235943511854228A5C002A06D05431F8
:1007B0008A6A012A02DB521E8A6201BDFFF740FFEE
:1007C00001BD38B5144CA068401CA06060680028CA
:1007D00001D0401C6060584D00202178012902D0D2
:1007E000A178002902D0A070286031BD2868401C83
:1007F0002860062801D301F0DCF928680B2809D30A
:100800005420205C002803D19C20205C002801D0CB
:10081000FFF7AFFF31BD00002004002001000229D6
:1008200000DB7047F8B5434A48234B43D3185424A0
:100830001C5D002C66D01C005434A14D6E180025A0
:10084000277A002F08D137787F1C3770FFB21F2F0F
:1008500003DB3570257000E0357025726678052E53
:1008600001DB25704CE054269B5D1826714351181E
:10087000944E012B1DD10422A25E2423C95E8A421C
:1008800040DB02212170FFF7DBFEE06800280CD07E
:1008900001F0BEF9E168401A6061B04202D36561BF
:1008A000A58302E0A08B401CA08301F0B1F9206178
:1008B000F1BD022B22D124228A5E0423E35E30277D
:1008C000CF57DB199A421DDB012222702F22895C4F
:1008D000FFF786FEE06800280CD001F099F9216945
:1008E000401AA061B04202D3A561E58302E0E08B2B
:1008F000401CE08301F08CF9E060F1BD032B01D0D6
:10090000FFF79CFDF1BD022801DB00207047B649CE
:100910009622D200002802D10868082301E0886CE2
:100920005023C95E891888428041C043C00F704778
:10093000000000002004002038060020F8B5AB4D70
:1009400028005430866B002E07D05420285C0128E4
:1009500003D0A748C16B491CC16328009C30876B3A
:100960009C20285C69460870002F08D068460078F3
:10097000012804D028009C30C16B491CC163687DEC
:10098000002845D10024686800289A4800D195E0E5
:100990000078401C3C2100F037F99648017028008F
:1009A0005430006A401C29005431086228009C30F1
:1009B000006A401C29009C3108629620C000542126
:1009C000695C01290ED18A4A516B491C516340214F
:1009D000515E0B189E4202D2761C966302E0864B53
:1009E000C91891636946097801290ED1834A516B70
:1009F000491C51634021515E0818874202D27F1C76
:100A0000976302E07C48081890637A4800780028D1
:100A100055D1287F002830D1A86900282DD0A96899
:100A2000081A7749884228D3E7B2280026301821CF
:100A30007943405E0A2100F0E7F8C0B20126192888
:100A400016DD411E48225743EA195823D25ED5339A
:100A50009A4203DB1C2801DBFE3000E00800C1B233
:100A6000182900DC1920C1B2E0B2FFF721FD2E7772
:100A7000641CE0B20128D7DD2E775D4E2620285E6B
:100A80000A2100F0C1F8C1B2306A00F0AFF9A884C1
:100A90005A4C3E20285E0A2100F0B6F8C1B2206A06
:100AA00000F0B6F9A88729003031306A00F0E4F987
:100AB00029004831206A00F0F0F9F1BD0470F1BD61
:100AC00036060020915F0100F1B582B04D4C62788E
:100AD00046484178009100258C2109015423C35CCC
:100AE000002B09D00300543304269B5F8B4203DBA9
:100AF0000F2A02DA521C00E0002262702278A378EA
:100B00009C26865D002E12D006009C360427F65FD8
:100B10008E420CDB0F2B00DA5B1C61780F2907DBA0
:100B2000D9B20F2904DB02214170012205E0002324
:100B30000099022901D145700022A370FA214900D1
:100B40005423C35C012B10D1E378294EB78C8F421C
:100B500009DA0427F65FAA277F00BE4203DA712B69
:100B600002DA5B1C00E00023E370244E3378012B93
:100B70000FD12379B78C8F4209DA0421715EAA263E
:100B80007600B14203DA712B02DA5B1C00E000232D
:100B900023715423C35C002B0ED0E378712B02DA4F
:100BA0002379712B03DB04224270012206E0009BB3
:100BB000042B03D1457013E0E570257100980328DC
:100BC00001D1012201E010000BD06846007A2270AA
:100BD000002801D100F0D8FF22780098002800D129
:100BE00000222270F7BD0000AC0400202004002089
:100BF0007404002040060020DC050000BC04002036
:100C00008C0A000030060020CA0F00D049420310B1
:100C10005A400DD004B500D3404200F009F8009AC4
:100C2000D20701D34942124200D5404204BD000020
:100C3000094214D088420FD30122030C01D10004D1
:100C40001204002300185B418B4200D35B1A52410F
:100C5000F8D319001000704701000020704708B554
:100C600000F0DCFF08BDFEE7002200BF094202D011
:100C7000491E4254FCD1704700210170418081809F
:100C80007047FEB50A9C002C0CD06D46A9806946C1
:100C9000898809B2002905DD69464A80498809B278
:100CA000002901DC0020FEBD6946087000200856BE
:100CB000002801D1354F00E0354F029308980621F6
:100CC000FFF7B6FF002501260299884205D3684642
:100CD0000078FFF737FDA58012E0081A0290089807
:100CE0000621FFF7A5FF0A00029968460078FFF782
:100CF00034FD0298002811D10420205E00280DD177
:100D000068460078FFF71EFD6846808800B2608064
:100D100026706846408800B2A08019E0207801283B
:100D200007D168460078FFF7EEFD002801D0257056
:100D300002E02078002818D10420205E6946498806
:100D400009B288420FDA6846808800B26080267057
:100D50006A46528812B26946898809B26B4658576A
:100D600000F0A6F9FEBD3800FEBD0220215E08009D
:100D700000DCDC216A46528812B26B46585700F0FC
:100D800097F90299401800D50020FEBDDC0A00004A
:100D9000080C00000021944A0C234B43D21813681E
:100DA000984202D35368984203D3491C0729F2D3CF
:100DB00002E0082010567047062070470021B34A11
:100DC0000C234B43D2181368984202D353689842BD
:100DD00003D3491C0729F2D302E0082010567047BC
:100DE00006207047AA487047AA48704710B50C0003
:100DF00018390F2902D30A20604310BDFFF7CAFF3C
:100E0000C1B2052900DB0420A349C0B21E2210E0B4
:100E100010B50C001839172902D30A20604310BD01
:100E2000FFF7CCFFC1B2052900DB04209B49C0B20B
:100E30002E22504308186100401830380021405ECF
:100E400010BD80B50300080011001A0002D1FFF7A1
:100E5000CDFF02BD012B02D1FFF7DAFF02BD0A2050
:100E6000484302BD010001D114207047012801D17F
:100E70001E2070470020704710B50C00FFF78AFF56
:100E8000C0B2874900228A56904205D0032802DB6F
:100E900022780A322270087010BD10B50C00FFF7DE
:100EA0008DFFC0B27F4900228A56904205D00328A8
:100EB00002DB22780F322270087010BDD0B504001A
:100EC0008B4209DA2488C91A09B2462048430A210C
:100ED000FFF79AFE201A29E0501E0A2670430818D0
:100EE000984209DA51006118091F02228C5E0988B4
:100EF000611A09B2181A14E05F1A38000A21FFF7C4
:100F000083FE060038000A21FFF77EFE70002018DD
:100F10000022845E002901D12000D0BD0222805E23
:100F2000001B48430A21FFF76FFE201800B2D0BD16
:100F300080B5FF22BA32904201DB00F015F80300C1
:100F40001122C8215848FFF7B9FF02BD80B5FF2222
:100F5000EC32904201DB00F059F803001522C82161
:100F60005248FFF7ABFF02BD30B50200FF21BE3192
:100F70008A4229DB002100BF1CA34C001C1902235C
:100F8000E35E834203DA491C0E29F4DB11E0002002
:100F9000255E18310A204143AB4201D108B230BD71
:100FA0000C00501B0A214843591BFFF72DFE201847
:100FB00018E0B64810180A2148430F21FFF724FE15
:100FC000BE21490040180DE0C92A0CDBC83A282090
:100FD00042431000F521FFF717FEC83001B278290F
:100FE00000DA782000B230BDDC5C0008BD01CF0122
:100FF000E001F2010402160228023A024C025E02EB
:10100000700282029402A302B202000030B5020014
:10101000FF21EE318A4228DB00219D4B4C001C1938
:101020000223E35E834203DA491C1629F5DB11E053
:101030000020255E18310A204143AB4201D108B29D
:1010400030BD0C00501B0A214843591BFFF7DCFD43
:10105000201818E08F4810180A2148430E21FFF786
:10106000D3FDE621490040180DE0C92A0CDBC83A3F
:10107000282042431000C839FFF7C6FDC83001B22E
:10108000782900DA782000B230BD0000305D000819
:101090008C0A0000B80B0000DC5B0008105A000846
:1010A0004400002045000020845D0008A85D000881
:1010B000F1B582B00E0015003000774F00246A466B
:1010C00008215156002915D1FF21BA31884202DB8F
:1010D000FFF74AFF06002800FF21BA31884202DBF1
:1010E000FFF742FF0500002E6BDD2B0069DD9E42FD
:1010F0001CDB66E008215156012900D0C0E0FF2129
:10110000EC31884202DBFFF781FF06002800FF2157
:10111000EC31884202DBFFF779FF0500002E04DD89
:10112000002D02DD0095AE424DDB9FE0322E01DA4C
:10113000012446E0981B00B200905848181841104E
:10114000890F0818851028352DB2282D01DA282599
:1011500002E03C2D00DD3C250098854222DB5E1B31
:1011600030B2782800DA78261122C8213800FFF73B
:10117000A5FE040033B21122C8213800FFF79EFEFD
:10118000FF21C900A04202DA201A00B241180098DB
:10119000414308002900FFF737FDFF21C900441A29
:1011A00024B20EE01122C8213800FFF787FE0500A7
:1011B00033001122C8213800FFF780FEA84200DA70
:1011C0002C1A374853E0322E01DA01244EE0A81BD6
:1011D00000B201903349681840000A21FFF714FD5E
:1011E000050028352DB2282D01DA282502E03C2DF6
:1011F00000DD3C250198854226DB0098461B30B275
:10120000782800DA7826009B1522C821380024307F
:10121000FFF754FE040033B21522C82138002430F1
:10122000FFF74CFEF0210901A04202DA201A00B2B9
:1012300041180198414308002900FFF7E5FCF0211F
:101240000901441A24B211E0009B1522C82138007C
:101250002430FFF733FE050033001522C821380083
:101260002430FFF72BFEA84200DA2C1A0E48002C7F
:1012700008D1694608200856002801D10B48FEBD58
:101280000B48FEBD001B00D50120FEBD4EFDFFFF3B
:10129000DC5E0008EAFCFFFF845D0008E8FEFFFF5B
:1012A0008C0A0000D4FEFFFFB80B0000841200007F
:1012B000B81A000070B5040000F0AAFC0500B64E94
:1012C0003078002808D0002CFAD000F0A1FC401B98
:1012D000A042F5D3002070BD01203070EFF31080E4
:1012E000012181F31088AD490A68802313430B6004
:1012F00080F31088012070BDE0B50200002901D004
:10130000062000E01520694608720120019002A81D
:10131000009004230121E14800F0AEFD002801D037
:1013200000200EBD0CE0E0B5019200910423020004
:101330000121DA4800F0A0FD002801D000200EBDF8
:10134000C820FFF7B7FF0EBD70B590B0FEF734FFB1
:101350000100D34C2078401C097DFFF755FC21701B
:101360002078002800D015E1FEF726FF02AC5821B6
:10137000405E0A21FFF748FC2170FEF71DFF58214F
:10138000405E0A21FFF740FC6070FEF715FFA021C8
:10139000405E0A21FFF738FCA170FEF70DFFA02187
:1013A000405E0A21FFF730FCE070FEF705FF2621C2
:1013B000405E0A21FFF728FC2171FEF7FDFE262181
:1013C000405E0A21FFF720FC6071FEF7F5FE3E212A
:1013D000405E0A21FFF718FCA171FEF7EDFE3E21E9
:1013E000405E0A21FFF710FCE071FEF7E5FE2421C4
:1013F000405E0A21FFF708FC2172FEF7DDFE242182
:10140000405E0A21FFF700FC6072FEF7D5FE3C212A
:10141000405E0A21FFF7F8FBA172FEF7CDFE3C21EA
:10142000405E0A21FFF7F0FBE072FEF7C5FE406860
:101430002073000A6073FEF7BFFEC068A073000A45
:10144000E073FEF7B9FE80682074000A6074FFF74D
:1014500021F9A0740020FFF716F9E0740120FFF7CE
:1014600012F92075FEF7A8FE7821405A6075000A2F
:10147000A075FEF7A1FEC021405AE075000A207653
:10148000FEF79AFE8C2140586076000AA076FEF79F
:1014900093FE90214058E076000A2077FEF78CFEFC
:1014A000D42140586077000AA077FEF785FED82146
:1014B0004058E077000A20216054FEF77DFE456F1A
:1014C000FFF790FC0026854201D2401B00E000207F
:1014D0002122A054000A22216054FEF76DFEBC2197
:1014E0004558FFF781FC854200D2461B23216654F4
:1014F000300A24216054FEF75FFE3021405C252134
:101500006054FEF759FE4821405C26216054FFF7E5
:10151000CEF827216054FEF74FFE8821405828223C
:10152000A054000A29216054FEF746FED0214058FD
:101530002A22A054000A2B216054FEF73DFE94217C
:10154000405E2C22A054000A2D216054FEF734FE88
:10155000DC21405E2E22A054000A2F216054FEF7A9
:101560002BFE9621405C30216054FEF725FEDE21E3
:10157000405C312160543220019002A80090052384
:10158000484A0121454800F077FC002802D1C820D4
:10159000FFF790FE10B070BD4D00002000380140F4
:1015A00078B589B00600404A10685168926802AC6C
:1015B0002070030A6370030CA370000EE0702171A9
:1015C000080A6071080CA071080EE0712272100AFE
:1015D0006072100CA072100EE072042020730320C1
:1015E0006073FFF73FF8A0730F25FEF7E5FD416834
:1015F000002942D0E1734168090A21744168090C4D
:1016000061744068000EA0740020FFF735F80A21CD
:10161000FFF7FAFAE1740020FFF72EF80A21FFF72E
:10162000F3FA20750120FFF727F80A21FFF7ECFAFB
:1016300061750120FFF720F80A21FFF7E5FAA07590
:101640000020FFF712F80A21FFF7DEFAE17500200B
:10165000FFF70BF80A21FFF7D7FA20760120FFF7F2
:1016600004F80A21FFF7D0FA61760120FEF7FDFFAA
:101670000A21FFF7C9FAA0761B253300019502A8BD
:1016800000900A4A0121054800F0F6FB002802D12B
:10169000C820FFF70FFE0AB070BD00005C000020FC
:1016A00043060020060A00009075FF1F070A00008D
:1016B000F8B505000F0014001E00FEF77DFD8178CF
:1016C000491C8170012F02D0022F18D056E0002C47
:1016D00052D0012E50D10020FEF7CEFF0A21FFF795
:1016E00093FA20700120FEF7C7FF0A21FFF78CFA5A
:1016F0006070022221002800FFF715FE3CE0FEF793
:101700005BFD00214175032E38DD2178FF2902D0D1
:101710000020FEF7CDFE6178FF2902D00120FEF700
:10172000C7FEA178182906DA0020FEF79FFEA178EF
:101730000120FEF79BFEE078012804D0022815D096
:10174000FF2815D01AE0FFF714F801212800FFF751
:10175000D3FD0120FFF7B8F9FEF7A9FF04280BD14C
:101760000020FEF7A1FF00F00FFA05E0FEF7C8FF2A
:1017700001212800FFF7C0FD0120F2BD51E0F8B5BE
:1017800005000F0014001E00FEF716FD8178491CAD
:101790008170012F02D0022F18D042E0002C3ED0E1
:1017A000022E3CDD0020FEF767FF0A21FFF72CFA2E
:1017B00020700120FEF760FF0A21FFF725FA607014
:1017C000022221002800FFF7AEFD28E0032E28DDCD
:1017D00021780020FEF7D1FE61780120FEF7CDFED2
:1017E000A1780020FEF742FEA1780120FEF73EFE20
:1017F000E078012802D0022807D012E0FEF7B9FFF6
:10180000FEF7DAFC0021417505E0FEF7D5FC012169
:101810004175FEF775FF01212800FFF76DFD0120DE
:10182000F2BD00212800FFF767FD0020F2BD38B5AA
:1018300005000C00FEF7C0FC8178491C8170052C66
:1018400007D101212800FFF757FD00F09DF9012085
:1018500032BD012CF9D0042CF9D0002128002AE057
:101860000220704738B505001400012902D0022972
:1018700010D01FE0002C1BD00020FEF70EFF2070C0
:101880000120FEF70AFF6070022221002800FFF706
:101890004AFD0DE0012B0DDD21780020FEF792FEC0
:1018A00061780120FEF78EFE01212800FFF724FD5C
:1018B000012032BD0021FFF71FFD002032BD10B511
:1018C0000400022901D1002B01D1002133E010785E
:1018D000FEF7ABFE1CE080B5012901D0022002BD5D
:1018E000FEF76AFC007D002803D1FEF765FC0A21A3
:1018F00001750420FFF754FE012002BD10B504005D
:101900001000022901D1042B00DA12E0FEF74AFE92
:1019100001212000FFF7F0FC012010BD10B50400EC
:101920001000022901D1042B00DA02E0FEF7ACFD21
:10193000EEE700212000FFF7DFFC002010BD80B59E
:10194000022922D1022B0ED11178A52928D1517854
:101950005A2925D10121FFF7CFFC642000F020FB9C
:1019600000F05DFB1AE0032B1AD111786F2917D113
:101970005178742914D19178612911D10121FFF78F
:10198000BBFC642000F00CFB06E0042908D1012B0D
:1019900006D11178552903D100F06AFB022002BD5F
:1019A0000021FFF7A9FC002002BD91B586B00129F6
:1019B00032D102A900A8801C00F088FC01A9684669
:1019C00000F0E2FC03A8694649880170694649882D
:1019D000090A417002998170090AC1700299090CC3
:1019E00001710299090E4171694609888171694640
:1019F0000988090AC17101990172090A41720199A4
:101A0000090C81720199090EC1720C2203A9684662
:101A1000008BFFF788FC64E002293ED1022B3CDDFD
:101A20001078AA2813D15078552836D10024907800
:101A3000612802D100F032FD46E0622802D100F0B8
:101A40006BFD41E0FF2840D100F0A4FD3CE0082BF5
:101A500023DD5A2821D15078A5281ED19778D07837
:101A60001179090201436846018050799179090290
:101A70000143D07900040843117A0906014315D1C6
:101A8000FEF79AFB002F03D1CE21405A584902E0BD
:101A90008621405A5749020005D100216846008B33
:101AA000FFF72AFC1FE000F027FB01000024002FB5
:101AB00004D16846008800F01AFC05E0012F04D12B
:101AC0006846008800F070FC040021006846008B26
:101AD000FFF712FC002C06D0C82000F061FA00F0DD
:101AE0009EFA012000E0002007B090BD10B5040070
:101AF000022915D1022B13D11078A52810D15078C6
:101B00005A280DD100210020FEF7D4FD002101202C
:101B1000FEF7D0FD01212000FFF7EEFB022010BDF3
:101B200007E7F8B5344D280000F0DEF803282AD185
:101B3000E88F6946088040202C5C6F6CFFB2312F23
:101B400021DA2E4E002F05D03A00691C300000F03B
:101B5000DFFD03E000213000FFF786F83B000022A4
:101B6000684600882100264CD50064196568002D60
:101B700009D02588854203D0521C0D2A03D2F2E7F2
:101B800032006468A047F1BDE0B5FEF790FD6946FC
:101B900008720120019002A800900523194A012132
:101BA000154800F069F9002801D000200EBDFFF7AC
:101BB000C7FBE0B50020694608720120019002A829
:101BC000009005230F4A0AE0E0B502A80FA10A68B9
:101BD00002600320019002A8009002230A4A01211A
:101BE000054800F049F9C820FFF764FB07BD000075
:101BF0000000EB4300004D445C000020C4050020C1
:101C0000745C0008020B00000B0A00006F74610096
:101C100001484068704700BF000000207047FEE7A1
:101C20003822815400218164704710B504001421CA
:101C30003830FFF719F800203821605410BD10B576
:101C4000002903D0002A01D0002B01D1002010BDB3
:101C50000878147800190870521C5B1EF8D1C0B2C5
:101C600010BD00003821415C092900D9704780B5BA
:101C700001A2525C974400BF0A300E12160E1A24BD
:101C8000282C012111E003210FE004210DE00621A1
:101C90000BE0416C002901D0072106E0082104E097
:101CA000092102E0002100E00221FFF7B9FF01BD98
:101CB00070B5040001D1012070BD15000E004C214B
:101CC000FEF7D2FF2000FFF7B0FF6662A562FF209B
:101CD00030216054002070BD002801D101207047E0
:101CE00001700020704700007CB500281BD1B6E0D1
:101CF00001236A46210039312000FFF7A0FF684622
:101D000000783C211CE001236A4621003931200083
:101D1000FFF795FF684600783178002935D1E087D4
:101D20000125357010E00400524E0DE001236A4693
:101D3000210039312000FFF782FF684600783B21FF
:101D400060542000FFF78EFF01226946A06A00F070
:101D500049FD012800D084E000253820205C0928B6
:101D600000D979E001A1095649008F4404DFC1CCB4
:101D70001675212C466A684600780028E4D12000B8
:101D8000FFF753FF39202554DBE7E18F00020843BA
:101D9000E0872000FFF766FFC3E701236A462100C2
:101DA00039312000FFF74BFF684600784021C7E734
:101DB00001236A46210039312000FFF740FF6846C1
:101DC00000786064BDE7A06C202811D2411CA1649A
:101DD000694609782018417001236A46210039318B
:101DE0002000FFF72CFFA06C616C8842ACD1A8E703
:101DF0002000FFF71AFF072076BDA06C002809D14C
:101E00003A21615C6A4612780A433A202254A06C57
:101E1000401CA064A06C012896D13920205C4006AB
:101E2000400E41423A20205CC9B2814204D10921CE
:101E30002000FFF7F5FE87E72000FFF7F6FE0420FD
:101E400076BD2000FFF70EFF68460078FF2801D11D
:101E5000032076BD052076BD2000FFF7E6FE0120B9
:101E600076BD3820205C002801D1062076BD0220F6
:101E700076BD000044060020FAB583B004001700C8
:101E8000002600250B980190002C05D00A98002808
:101E900004D10B98002801D001257EE00B98093071
:101EA0000290606A00F0F1FC0299884201D2072595
:101EB00073E06946684606800122606A00F045FCCE
:101EC000012203A9606A00F040FC012303AA00A9D3
:101ED000491C2000FFF7B3FE01222100606A00F0D8
:101EE00034FC0123220000A9491C2000FFF7A7FEB3
:101EF00069460F700122606A00F027FC01236A46E0
:101F000000A9491C2000FFF79AFE380A69460870AC
:101F10000122606A00F019FC01236A4600A9491CED
:101F20002000FFF78CFE012204A9606A00F00DFC7E
:101F3000012304AA00A9491C2000FFF780FE01220A
:101F40000BA9606A00F001FC01230BAA00A9491C3F
:101F50002000FFF774FE019800280BD002460A9972
:101F6000606A00F0F2FB019B0A9A00A9491C20005C
:101F7000FFF765FE684640784006400E41426846DD
:101F8000017001226946606A00F0DFFBFF206946AC
:101F900008700122606A00F0D8FB280005B0F0BD8F
:101FA00038B50400FFF734FE05000020C04384422A
:101FB00002D0044800782418FFF72AFE401BA042F4
:101FC000FAD331BD0000002010B5C30018221A401A
:101FD000FF249440E3438907090E9140020004D492
:101FE0001D4892089200801806E01C4A0007000F66
:101FF00008388008800010180268134019430160F7
:1020000010BD80B5FFF7E0FF01BD0000010005D461
:102010000121C006C00E8140114801607047BFF326
:102020004F8F104810490860BFF34F8F00BFFDE786
:1020300010B5401E80214904884201D3012010BD03
:102040000A4C606003210020C043FFF7BDFF002061
:10205000A0600721216010BD00E400E01CED00E05D
:1020600000E100E00400FA050CED00E010E000E003
:1020700000B587B0684600F0B9FC0698C1010FD5DD
:1020800009490140069100F032FD00F049FD684623
:1020900000F065FC00F064FD00F051FD00F037FD3C
:1020A000FFF7BDFF07B000BDFFFFFFFE30B587B0F3
:1020B0001C2100226846FEF7D9FD684600F096FC18
:1020C000069C80256D042C4213D100F010FD00F019
:1020D00027FD04200090059525430695684600F0ED
:1020E0003EFC002801D100F03BFD00F028FD00F08F
:1020F0000EFD07B030BDFEE710B50400A14800F0AA
:1021000085FDFC21890500F0D9FD00F067FE002166
:102110002200002300F076FE80229201121B002391
:1021200000F089FE10BD0168C44A914207D1818840
:10213000652904DA8068002802D0012000E0002030
:10214000C0B2704738B50C0005000020C0432968B4
:10215000814204D16968814201D1002032BD28004A
:10216000FFF7E1FF010001D00DCD0DC416E038B539
:102170000C0005000020C0432968814204D1696831
:10218000814201D1002032BD28000C30FFF7CBFF87
:10219000010003D028000C302CC82CC4080000D04B
:1021A000012032BDF0B585B005000C001600B9481D
:1021B00000F0ABFE00F09BFC8020B749086001A84E
:1021C00000210022002300278EC0022001900394EA
:1021D00001240494694601A800F07EFB002803D086
:1021E00000F095FC00202DE037000CCF083F2900BF
:1021F000012000F04FFC002800D0002438000830F7
:102200000CC829000831012000F044FC002800D04F
:102210000024380010300CC829001031012000F0D3
:1022200039FC002800D00024380018300CC81835BC
:102230002900012000F02EFC002800D0002400F02E
:1022400066FC200005B0F0BD03000F3B152B01D24A
:10225000002901D10020704780001058884201D227
:10226000081A00E0401AC94988428041C00F7047EF
:102270007FB5A84EC64C6D4669462000FFF762FF49
:10228000002805D169463000FFF75CFF002808D020
:10229000FDF792FFA9884C228152FDF78DFF02992C
:1022A000016569462000FFF762FF002805D16946F5
:1022B0003000FFF75CFF002807D0FDF77DFFA988FD
:1022C0008186FDF779FF029981637FBD38B50500EE
:1022D0000C00002D04D0FDF76FFF4C21405A2880E0
:1022E000002C03D0FDF768FF006D206031BDF1B513
:1022F0008AB00F00B24A6846008DFFF7A5FF00289C
:102300003ED000264D4C6D4606A9A148FFF72FFF91
:10231000002805D106A97F48FFF729FF002807D02C
:1023200069460C3106A80CC80CC102680A6009E0B5
:102330000394FDF741FF808E28826E82FDF73CFFFB
:10234000806B059000946846008DA880EE8002970F
:102350006A461E218E48FFF725FF002810D06A46E6
:102360001F216C48FFF71EFF002809D0FDF724FF4E
:102370004C216A46128D4252FDF71EFF076501206F
:102380000BB0F0BD00007A4438B505000C00002DFC
:1023900003D0FDF711FF808E2880002C03D0FDF7BD
:1023A0000BFF806B206031BDF1B58AB00F00854A0C
:1023B0006846008DFFF748FF00283DD000261F4CDF
:1023C0006D4606A97248FFF7BDFE002805D106A993
:1023D000BE48FFF7B7FE002806D0694606A80CC81D
:1023E0000CC102680A600AE00094FDF7E5FE4C218A
:1023F000405AA880EE80FDF7DFFE006D0290039446
:102400006846008D28826E8205976A461E216048C4
:10241000FFF7C8FE00280FD06A461F21AB48FFF720
:10242000C1FE002808D0FDF7C7FE6946098D8186E8
:10243000FDF7C2FE876301200BB0F0BD6153694E0A
:1024400030B585B0134800F060FD00F050FB8020EF
:102450001149086001A800210022002300241EC0A9
:1024600002200190012004901E200390694601A8DB
:1024700000F032FA04001F200390694601A800F022
:102480002BFA0500254300F042FB681E8041C00F77
:1024900005B030BD100600201020024078B589B08C
:1024A0001C4D3B4C69462000FFF761FE002805D11A
:1024B00069462800FFF75BFE060000D00126FDF705
:1024C0007BFE4C2116224252FDF776FE3C49896D77
:1024D0000165002E02D1FFF7B3FF18E0182103A811
:1024E000FEF7C2FB03A80C3069464CC94CC003AAD6
:1024F0001E212000FFF756FE040003AA1F2128001A
:10250000FFF750FE002802D0200000D001200AB0C2
:1025100070BD000000F8000878B589B06B4D1C4C08
:1025200069462000FFF70EFE002805D16946280005
:10253000FFF708FE060000D00126FDF73DFE16213C
:102540008186FDF739FE1F49896D8163002E02D116
:10255000FFF776FF17E0182103A8FEF785FB03A815
:1025600069464CC94CC003AA1E212000FFF71AFE81
:10257000040003AA1F212800FFF714FE002802D040
:10258000200000D001200AB070BD000009560000F4
:1025900000F0000810B51624FDF70EFE4C21445241
:1025A000FDF70AFE0649896D0165FDF705FE848683
:1025B000FDF702FE0349896D8163FFF741FF10BDFE
:1025C0007C580008E8560008F8B584B004000E00F6
:1025D00011001D00652801D23D4862E0C822520169
:1025E000904201D33B485CE00B9FFFF785FD002143
:1025F0006A4603C2002F0AD0200000F091FC364941
:1026000000F004FBE421890500F000FB38600C9C1D
:10261000002C07D0684603C8FA229200002300F07D
:102620000AFC20800A9C684603C8AA00B25800230E
:1026300000F0E8FB2200002300F0FDFB32680023DD
:102640008B4204D301D8824201D3002029E0C82262
:102650005200B258994222D8904220D200276322D9
:10266000019602AB03C30025B818431001989900E6
:10267000401806684068009002A803C8A94203D821
:10268000B04201D25A1E08E0009C02A803C88D4245
:1026900009D801D3844206D25F1CBA42E4DAFA2098
:1026A000800005B0F0BD0A2043431C0002A803C807
:1026B000801B00210A22002300F0A4FB009A921B39
:1026C000002300F0B8FB201800B2EAE700F8000889
:1026D000CA080000D40800003333534070B4103AE5
:1026E00003D378C9103A78C0FBD2530701D318C975
:1026F00018C001D508C908C0D20704D30B880380CD
:10270000891C801C002A01D50B78037070BC7047AF
:102710008B0701D18307E1D0124205D00B78491C09
:102720000370401C521EF9D17047002803D00029C5
:1027300001D0002A01D100207047002303614260CC
:102740000160C360836001207047E0B500230193FE
:10275000009301AB00F001F84BE0FEB504001E0051
:10276000002C14D02068002811D0606800280ED0FA
:10277000019100290BD0150009D0200000F085F848
:10278000002804D0A84205D20899C90701D5002025
:10279000FEBD0500E068009060680099471AAF42EE
:1027A00000D92F003A0001992068009BC018FFF75C
:1027B000AFFF0098C019ED1B06D02A000198C1197F
:1027C0002068FFF7A5FF28006168884200D3002039
:1027D000E0607D192369002B03D02A00012120002D
:1027E00098474DE0E0B500230193009301AB00F062
:1027F00004F8002800D001980EBDFEB504001E00AC
:10280000002C14D02068002811D0606800280ED059
:10281000019100290BD0150009D0200000F049F8E3
:10282000002804D0A84205D20899C90701D5002084
:10283000FEBD0500A068009060680099471AAF428D
:1028400000D92F003A00206841180198FFF760FF77
:102850000098C019ED1B06D02A0021680198C01904
:10286000FFF756FF28006168884200D30020A0606F
:102870007D192369002B03D02A00002120009847EE
:10288000002E00D035600120FEBD002805D0016873
:10289000002902D04168002901D100207047C26898
:1028A0008068824202D3891A081800E0801A401E0C
:1028B0007047002805D00168002902D0416800292E
:1028C00001D100207047C2688068824201D3101A8B
:1028D0007047081A80187047F8B504000F00614867
:1028E0000078012801D10220F2BD01205D49087065
:1028F00000254D60FA20800000F03AF901002BD14C
:10290000042161602168042909D157480168574AA8
:102910000A430260FA20800000F02AF91CE000213E
:10292000C9433960A16826000C0000E0641CB1684E
:10293000F26889188C420AD22100706800F074F89D
:10294000FA20800000F014F90100EFD03C60464905
:102950000A6802239A430A6042490D70F2BDF8B535
:10296000404F3978012901D10220F2BD0400012035
:10297000387000267E603C4D2168084009D0E06830
:10298000A168000401436068012801D1A96100E049
:10299000E961206806210140062901D122690CE085
:1029A000810705D5E868324901402269080006E040
:1029B000400706D500F04CF80200A169606900F0FC
:1029C0003DF8FA24A400200000F0D2F801000BD159
:1029D00028688021890201432960200000F0C8F89E
:1029E0002968244A0A402A603E70F2BD38B50400C6
:1029F00007202060204D1F206168012904D1E9686B
:102A00000140A160E96803E029690140A1602969EA
:102A1000090C0840E06000F01BF8206128681449A8
:102A20000840A061616131BD0F480268134B13403B
:102A3000C9001943124A0A430260704730B50E4B71
:102A40001C68FF250543AC4321430A431A6030BD8F
:102A500009480068C0B2AA2802D0CC2800D0BB2008
:102A600070470000F405002014200240040001001B
:102A700000604F07FFFFFDFF2020024007E0FFFF3F
:102A80000200010008B4024B9C4608BC6047C046E7
:102A900011000020F1B50F0014001D00504800780F
:102AA000012801D10220F2BD01204D490870002605
:102AB0004E60FA20800000F05BF8010014D138006D
:102AC00022002B000099012902D100F07DF802E0DC
:102AD0001100FFF7D7FFFA20800000F049F84149C4
:102AE0000A68009B9A430A603D490E70F2BD0020BF
:102AF0003F4980221206CB68134007D03D4B0B6044
:102B00003D4B0B60C9680A4000D00120704710B5EA
:102B10000124FA20800000F02BF88020000615E048
:102B20000120364982078B68134007D0344B0B6075
:102B3000344B0B6089680A4000D10020704710B503
:102B40000124FA20800000F013F8A00725490A6844
:102B500002430A600968084000D00024200010BD2C
:102B600020480168802212050A4302600120704754
:102B7000F8B50400FFF74CF80027FF431B4E050093
:102B80003068C00308D5BC42FAD0FFF741F8401BBB
:102B9000A042F5D30320F2BD3168134808401A491A
:102BA0003160002803D00E4948600120F2BD306832
:102BB000400307D5BC42FAD0FFF72AF8401BA042D9
:102BC000F5D3E7E70020F2BD30B506490C680125D2
:102BD00025430D600260BFF36F8F001D036030BDA1
:102BE000F405002014200240FA8300001020024067
:102BF0000820024023016745AB89EFCD0C2002403D
:102C00003B2A19087F6E5D4CFB83000030B4050041
:102C10004D400122D20715404B180418240E2ED027
:102C20001B0E32D0FF2C34D0FF2B3AD0E418000218
:102C3000090210431143000A090A9446C2B24A43EA
:102C4000000AC3B24B43000A4843110A5B181A43F7
:102C5000D2B2190A091801D44918641E080A7F3C27
:102C600023DBFE2C08DAE40509061143634699418B
:102C70006041284330BC7047FF20C005F9E72800B9
:102C80001B0EFF2BF6D1D043F4E72800FF2CF1D127
:102C9000F9E74002F7D1FF2B01D14902F3D1E0055A
:102CA000E7E7D8054902E4D0EDE743020020641CC1
:102CB000DFD15B129B1CDCD9D805DAE70122D207F1
:102CC00003004B402ED4431A01D2C01AC91830B4A5
:102CD0004B180418240E1B0E22D0FF2C20D0E31A10
:102CE000182B1DDC09021143C40D641E00021043A1
:102CF00094461925ED1A0A00AA40D940451801D377
:102D00006D08A41CE405D209280A2D062A4365464D
:102D1000AA41604103181B0EFF2B01D3C00DC00553
:102D200030BC7047514006E05140CCE70122D20749
:102D300003004B40F8D4431A03D2C01AC9185040BC
:102D4000514030B44B18090211430418240E1B0ED5
:102D500040D0FF2C3AD025009D410BD31ED8C50D85
:102D60004002401A0BD3ED050100400AC90591410C
:102D70006841D5E7C50D40024918401AD0D001215D
:102D80004008491C0018FCD58C4204D36D1A000A77
:102D9000ED054019C4E7E8051040C1E7182DBFDC78
:102DA000AC1C0D00E140E5414D40012D4941C40DF1
:102DB00000021043451A01D46D199543641EE405C1
:102DC000280A2D069541604130BC7047FF2BA7D1E2
:102DD000D843A5E72442A3D10020A1E700180ED2D2
:102DE000010E7F390BD449421F3105D4C0010122A5
:102DF000D2071043C84070470020401E7047002093
:102E00007047FEE730B4434351435D18010C0C009A
:102E1000130C5C432D1980B2434392B251430024FA
:102E2000C918644124040B04090C09195043C01843
:102E3000694130BC704712422DD0994231D970B5EA
:102E400000251B4209D00C00002112E01100FDF703
:102E5000EFFE0A000021002370BD0942F6D00024D5
:102E6000012649186441944200D3A41A7641F8D34C
:102E70003100012601E0764109D2001864416D411C
:102E8000A41A9D41F7D2A4185D41B619F5D33000BC
:102E900022002B0070BD1B42CFD108B500F050F8C6
:102EA00008BD01D19042CAD202000B0000210020CF
:102EB0007047FEE770B5040001D1012070BD2068A5
:102EC000144901601449016061684160A168816032
:102ED000FEF79EFE072506002068C16829400AD03B
:102EE000FEF796FE801B3228F6D32068C068284083
:102EF000F2D0032070BDE16802698A4201D001610D
:102F000001E006490160002070BD044900680160CD
:102F100000207047CCCC000055550000AAAA000044
:102F20009D2102000AD002D4491E9218FCD5C90581
:102F3000100A1206524100D3012A4841704700008E
:102F40007047FEE710B504231940436907248C40FD
:102F5000A3438A401A43426110BDC068C0210901E1
:102F60000140481E8041C00F7047FEB50500002695
:102F700000200090002D01D10120FEBD2C00543412
:102F80006068002805D1280000F0DFFB0020A06069
:102F9000207028688168C90014D48168724A0A4088
:102FA0008021490511438160704800687049FDF730
:102FB0003FFE401C400001E00098401E0090009839
:102FC0000028F9D1296888681027C00007D46068F4
:102FD00038436060A06801220243A260012688682D
:102FE00062683A4000D0B9E0400700D5B6E06068BA
:102FF000604A02400220104360608868C00772D4B3
:10300000286B002801D03A0200E00022286900283D
:1030100002D54000400800E078040190A87E6B468D
:103020001870AB68287E800318436B7EDB03034374
:1030300068460078400318430243E8681043019A49
:1030400002432C20285C400010432022AA5C012A65
:103050000FD16A461278002A03D1020038031043C8
:1030600007E06268202313436360A26801231343CF
:10307000A3606A6A002A05D0E0235B001340034383
:10308000A86A1843CA683C4B13401843C860686874
:10309000810F8907E86C08433C21695C012907D14D
:1030A000296C0143686C0843A96C01430120084363
:1030B00029680A69314B1340184308616B68C020C6
:1030C000000683420FD0404283420CD0802000068D
:1030D000834208D02A4801682A4A0A40F02189031D
:1030E0001940114301606A6B00212868FFF72AFF2D
:1030F000AA6B25492868FFF725FF29690F20C043DF
:10310000002904D129688A6A104388620CE07A0495
:10311000914209D129688A6AEA69521E5207D20E81
:103120009040E26802438A62286841690220C043F5
:103130004907490F6A6B914207D10021A16061687C
:1031400008400121014361600CE0616808400743C9
:1031500067600126A0683043A06003E06068074311
:10316000676001263000FEBDE8FFFF7F0C000020F5
:10317000400D0300FFFEFFFF0102DEFF02FCFF1F08
:1031800008270140FFFFC3FF04FFFF07F3B581B02D
:103190000400160021688A68042702203A4043D1BF
:1031A0005422A25C012A3FD00122542562551F4DB2
:1031B000CB6813400AD18B68134003D08B682B4037
:1031C000184388602068C1680A43C260200000F08C
:1031D00081F9010028D10096029A210054314868F3
:1031E000134B0340B8011843486000208860114B1E
:1031F000266DF362104B266D3363104B266D73639F
:103200001C232668336008702068416810230B4334
:103210004360009B21684031206D00F04BFB21682A
:103220008A6815402F438F60FEBD0000E8FFFF7FD6
:10323000FEF1FFFFD135000869360008733600083B
:10324000F1B585B0080000216A46517001910599D9
:103250005422895C012901D1022021E105995431D0
:10326000029101250D70059909688A68520700D5F9
:1032700009E1019005980069039001984068049065
:10328000884A894B894880242406049E022E00D156
:10329000CEE0039EA64201D0864207D10198006885
:1032A0008D6A4003400B2843886280E001980068E3
:1032B0000F27460302D14000C50E47E0284244D103
:1032C000860743D40425284201D002253EE00607A4
:1032D00001D503253AE0C60638D4850601D5052573
:1032E00034E0450601D5062530E0050601D5072561
:1032F0002CE0C50501D5082528E0850501D509255F
:1033000024E0450501D50A2520E0050501D50B255A
:103310001CE0C50401D50C2518E0850401D50D2558
:1033200014E0450401D50E2510E0050401D50F2554
:103330000CE0C50301D5102508E0850301D5112552
:1033400004E0400301D5122500E000250498C006E2
:10335000C00E6E4630700298C668B446684606785D
:103360000F20B04066468643684600788540354366
:103370000298C56001984068059DED698608761C35
:10338000B54214D3019D2D68C006C00E6E46307044
:103390008E6AB446684606780F20B040664686437B
:1033A000A80E074068460078874037438F6201982F
:1033B0008668016805980068090245698D430E40DA
:1033C0003B4931402943416101980068044062D083
:1033D0001C68D1432140374CA04217D18020000403
:1033E000014258D11C6822401143084318603248FA
:1033F00000683249FDF71CFC401C0C214843019039
:103400000198002847D00198401EF8E72C4CA042B4
:1034100002D18020400404E02A4CA0423BD180200D
:10342000C003014237D11C6822401143084328E001
:10343000039DA54201D0854206D1019800688D6A9E
:103440004003400B85438D6201980068044022D000
:103450001C68D1432140174CA04203D11868024098
:1034600019480CE0164CA04203D1186802401748D6
:1034700005E0144CA0420ED11868024014480840E0
:103480001043186007E00298406820210143029829
:10349000416068464570002002990870684640788F
:1034A00006B0F0BDFFFF3FFE08270140040000808A
:1034B00000FFFF07001000B00C000020400D0300CB
:1034C000004000B8002000B4FFFF7FFFFFFFFFFEB9
:1034D000FFFFBFFFF8B50500002000902868816855
:1034E000012421403FD1102781685B4A0A4032D134
:1034F0008168584A0A4022438260584800680002A6
:103500000CD5574800685749FDF792FB401C01E075
:103510000098401E009000980028F9D1687E01288C
:1035200021D0FEF775FB06002868006820401AD1FC
:1035300028688068204005D128688168454A0A408B
:1035400022438260FEF764FB801B0328ECD32868CB
:1035500000682040E8D1A86D0743AF65E86D0443DB
:10356000EC650120F2BD0020F2BDF8B50400206832
:1035700082688168C90729D502210A4026D1102511
:103580000126826805231340012B17D18268314B35
:10359000134019438160032021680860FEF738FB5F
:1035A000070020688068304010D0FEF731FBC01B58
:1035B0000328F6D3206880683040F2D0A06D054320
:1035C000A565E06D0643E6650120F2BD0020F2BD71
:1035D00010B5846AA16D50220A402CD1A06D8021C3
:1035E00089000143A1652068FFF7B7FC00281ED0C1
:1035F000A07E00281BD120680068000717D520682E
:103600008168012049070BD4216849680C22914345
:1036100022685160A16D0E4A0A401043A06506E081
:10362000A16D20220A43A265E16D0843E0652000F8
:1036300000F0ACFA10BDA16DC90603D5200000F062
:10364000D7FC10BD216D496B884710BD00000000FC
:10365000FFFEFFFFE8FFFF7F170000800827014003
:103660000C000020400D030080B5806A00F0AAFA2B
:1036700001BD80B5806A816D40220A438265C16DBB
:1036800004220A43C26500F0B3FC01BDFEB56846E2
:103690000021002200230EC0554C56482060802097
:1036A000800360600025A560E560206108206061FE
:1036B0002583A5760427E761202165546562A5620C
:1036C00001262C216654256307206063A0633C21FA
:1036D00066541020206480206064A564E5642000A6
:1036E000FFF743FC002801D000F080FC0096019514
:1036F000029569462000FFF7A3FD002801D000F0E5
:1037000075FC3D480090019769462000FFF798FD41
:10371000002801D000F06AFC384800900820019091
:1037200069462000FFF78CFD002801D000F05EFC08
:10373000334800900C20019069462000FFF780FD7F
:10374000002801D000F052FCF7BD70B58CB0040029
:10375000142101A8FDF788FA182106A8FDF784FABC
:1037600020682449884241D18020C001069000048D
:103770000A9006A800F03EFC002801D000F036FCBC
:10378000204880214903C2680A43C260C2681140D0
:1037900000910099012102680A430260006801401B
:1037A000009100980F2001900320029000250395BE
:1037B00001A9A020C00500F0C5FC134E13483060DD
:1037C00005207060B560F5608020306180307061E8
:1037D0008000B061F561C0003062300000F018F880
:1037E000002801D000F002FC2665B4620CB070BD68
:1037F0000405002000240140020000040400000829
:103800000800000C34100240680500200800024047
:1038100038B5040001D1012032BD20684949401863
:103820001421FDF705FA8000206402202521605450
:1038300020680068444901402068016020680168F0
:10384000A2680A43E168114322690A43616911438E
:10385000A2690A43E1691143226A0A430260200017
:1038600000F008F90025A0688021C901884200D134
:10387000656020798006800E616C0860E06CA16C48
:103880004860606800280AD0052808D2200000F0AF
:1038900006F9206D0560A06D616D486002E0256548
:1038A0006565A565E5630120252160542420255424
:1038B000002032BDF2B50400002000262421615C06
:1038C000012901D10220F2BD2100243101250D7012
:1038D0002527E75D012F2ED102212527E155E06341
:1038E00020680168A94301600099200000F0A3F856
:1038F0002068216B0029016801D00E2205E0042216
:1039000091430160206801680A220A430260606CEA
:1039100029020268D20302D502680A430260206DC0
:10392000002803D000680143206D01602068016811
:103930000D43056003E08022E26308700126300039
:10394000F2BD0000F8FFFDBF0F80FFFFFEB55C4930
:103950000A6802920268136801934023C35C1C2426
:103960001C406B461C7020230424029D6E46367852
:103970000427B7402F4015D0019D254012D015686F
:103980002B4002D11368A34313604A684023C35CF1
:103990001C251D40AC4014434C60016B002949D0EC
:1039A0008847F7BD01240025029EB44602276E46D3
:1039B0003678B740664637401BD00227019E3E400E
:1039C00017D01668334005D113680A26B343136035
:1039D000252284544A684023C35C1C241C40A74011
:1039E00017434F6024214554C16A002922D08847DB
:1039F000F7BD08236E4636780827B740664637403D
:103A000018D0019E334015D013680E26B3431360BF
:103A10004A684023C35C1C261E400123B340134365
:103A20004B60C4632521445424214554416B002933
:103A300000D08847F7BDF0B5C46C856C6C60046D30
:103A4000002C02D0846D456D6C601E4C27684025AB
:103A5000455D1C262E400125B5403D432560046888
:103A600063608068102802D1A260E160F0BDA160AF
:103A7000E260F0BD10B50400206C032188431249B8
:103A800040186064207808381421FDF7D1F80F49F8
:103A9000A1640121C006C00E8140E16410BD01791E
:103AA0008906890E8A000A4BD2180265094A4265C6
:103AB0000122491E8907890F8A40826570470000EC
:103AC000000002400400024000080240800802405A
:103AD000FC08024040090240017C407C081A400773
:103AE000400F704770B5027C0723551C07242C40FB
:103AF000467CB44203D013405A008152047470BD16
:103B0000F3B500290ED0110009290BDA72B6037C37
:103B10000093437C0724009DEE1A072535408D4213
:103B200002DA62B60020F6BDA94203DA009B9A1AB7
:103B300007231340002207E09D1825406D00455BD8
:103B4000019E5700F553521C8A42F5DB00994174DF
:103B500062B60120F6BDF0B500220BE013886C00C0
:103B6000041926889E4201D2168023806D1C8D4246
:103B7000F4DB3A004B1E9A4204DA571C3D00520017
:103B80008218F4E701229143405AF0BD38B55E4CEB
:103B900065892189E42080002018FFF7A3FF290010
:103BA000E92080002018FFF79DFF2069A189782275
:103BB0008152E189C02281520020E081A081608190
:103BC000208131BD704780B586B0142101A8FDF772
:103BD0004BF801204D490A6802430A600968084011
:103BE000009000988020C001019000200290039076
:103BF000049001A9A020C00500F0A4FA07B000BD00
:103C000080B58021C901A020C00500F049FB012832
:103C100000D0002002BD38B508003D4C21780025B9
:103C2000002A04D0022A05D0032A09D031BD032975
:103C300017D015E000F008FC032811D103250FE090
:103C400003290EDB00F002FC032803DAFDF7BCFFBA
:103C5000042505E0052802DBFEF70AFA00E0052549
:103C6000257031BD10B5B84C2078002801D001284E
:103C700001D1FCF7D3FD207801214140217010BD16
:103C80001CB5214CA078002806D002281ED016D3DF
:103C9000042825D01DD32FE0FCF793FD2069806810
:103CA000082829D1FFF78FFFA8480090A84B0122D0
:103CB000EE2080002118002000F08CFB1CE000208A
:103CC000FCF768FD0120FCF765FD15E0FCF736FE0A
:103CD00012E02069007D00280ED0FDF735FB0BE0D7
:103CE000E078411C401CF8220A40801AE070C0B203
:103CF000002801D1FCF7E8FEA078401C0521FCF764
:103D000083FFA17013BD0000480000203410024062
:103D100041060020F0B587B000F0ADFB00F0D8FB05
:103D2000FEF7C4F900F018F900F09DFB00F0E4FB89
:103D3000FFF7ACFC00F0F6FB00F0FAFC00F092FD9F
:103D4000FCF73CFAFCF738FA824E3061FCF7D2FA05
:103D5000802292003100903130006030FEF7E5FCA7
:103D600080225200A4208000311830007830FEF705
:103D7000DCFC320078323100603130001430FDF765
:103D800097FF022130001430FDF7A6FF8F48102165
:103D90000162EFF31082012383F31088036820246B
:103DA0001C43046082F31088EFF31082012383F335
:103DB000108803681943016082F31088FEF758FAEF
:103DC000C820FEF7EDF8824F380000F061FD0028B2
:103DD00001D000F00BF93220FEF7E2F804223100A6
:103DE00008313800FFF7D2F9002817D000F0FEF8AC
:103DF00014E0FFF745FF306980680938FF2168311A
:103E0000884205D2FDF704FF0100002000F002FB0C
:103E10003079401C0A21FCF7F7FE317101210020A6
:103E200000F0F6FD00243078002803D00020307028
:103E3000FDF777FE70780028F0D07470654C30691B
:103E40007821405AA04205DB08210020FCF732FC13
:103E5000FCF73CFC3069C021405AA04205DB082138
:103E60000120FCF727FCFCF731FC01243079052800
:103E7000C1D802A1095649008F4400BF0307BD3BCA
:103E800062BB5548FFF741F8B5E7E42080003518DC
:103E90002800FFF721FE0028ADD0072203A9280043
:103EA000FFF72EFE002819D0072103A8FFF753FEC5
:103EB00005003069010084310291010080310191D7
:103EC000816B0091838E454A45492800FEF77CFBB3
:103ED0003169583108800C714D80CD850422310044
:103EE00008313800FFF752F90121002000F090FD61
:103EF00081E7E920800035182800FFF7EDFD002854
:103F0000F6D0072203A92800FFF7FAFD0028E5D024
:103F1000072103A8FFF71FFE050030690100CC311F
:103F200002910100C8310191016D00914C21435A69
:103F30002C4A2D492800FEF747FB3169A031C9E71B
:103F4000FFF790FE57E7000042060020173C0008EC
:103F5000013C00084800002030B591B0342104A88D
:103F6000FCF782FE684600210022002300241EC0C8
:103F70008020800000F070FD0A200490F630079049
:103F800008944020099001200A9002250B950C9579
:103F90000D940E200E90C02000030F90C0021090D0
:103FA00004A800F09FFD002801D000F01FF80720B2
:103FB00000900195029403940221684600F074FF7A
:103FC000002801D000F012F811B030BD00380140D7
:103FD00004050020810C00001006002000004D4464
:103FE000E85600080000EB437C58000872B6FEE774
:103FF0007047FEE7FEB5040000206A461070494D88
:104000002168890355D5019080204005296B014026
:1040100008D1296B01432963296B0840019001985D
:104020000120019040480068A90D01433E4801600D
:10403000FDF7EEFD06003C480068C00505D4FDF71D
:10404000E7FD801B0328F6D323E0296DC020800004
:104050000840364F00280ED0616988420BD0286D89
:104060003840296D802252020A432A65296D304A60
:104070000A402A652865C0070FD5FDF7C9FD06006F
:10408000286D800709D4FDF7C3FD801B29498842AC
:10409000F6D303206946087004E0286D0740606984
:1040A000384328650198002803D0286B2249014035
:1040B00029632078C00705D5A86C0321884361686F
:1040C0000143A9642078800605D5A86C1B490140EE
:1040D000A0680843A8648020C001216801400DD079
:1040E000A96C8900890822690A43AA64216902042B
:1040F000914203D1296882000A432A602168090598
:104100000DD5A96C0E4A0A40E1681143A964E16823
:10411000814204D128688021490201432960684610
:104120000078FEBD0C10024000700040FFFCFFFF55
:10413000FFFFFEFF89130000FFFFFFEFFFCFFFFF30
:10414000FF3FFFFFFFB500220F2302932CE005265F
:1041500002E0564FB842FAD1AE402643009C26609A
:10416000534C2568DC4325404E68F60200D51D43BC
:104170004F4E3560756825404F68BF0200D51D431E
:1041800075604C4D6D6825404E68B60300D51D43E3
:10419000484E756035682C404D68ED0302D525000A
:1041A0001C002C433460521C0B681C00D44076D099
:1041B000012595402B40F6D054000326A640F74336
:1041C00001974E68B707BF0F012F03D0B607B60F90
:1041D000022E0ED18668019F3740CE68A6403E432E
:1041E00086604668AE434D68EF06FF0F9740374341
:1041F00047600D79AD07AD0F032D25D0C568019E31
:104200002E408D68A5403543C5600D79AD07AD0FD3
:10421000022D19D1D508AD0045192E6A03969600D6
:104220001C2737406E463770039EB446029F6E4689
:104230003678B7406646BE43B4460F696E46367858
:10424000B740664637432F6207680326019D3D400D
:104250004F683740A7402F4307604C68350425401E
:10426000A1D0154C9508AD0064190094009C2468F9
:10427000D70018253D40029FAF40BC43A027FF0553
:10428000B84201D1002667E70C4FB84201D10126A0
:1042900062E70B4FB84200D05BE702265CE7FFBD48
:1042A0000069084000D00120C0B27047000C0050E7
:1042B00000180240801802406018024000040050BC
:1042C00000080050F8B505000C001600EA68904799
:1042D0000090208804210027084216D10098002869
:1042E00012D1A7702180207E00280BD06069301A7F
:1042F000C8214900884205D3022221002800AB686A
:10430000984727760098A070F1BD0099A278914255
:1043100001D0A660F6E7002922D0C1070FD4A1681A
:10432000711A3229EED3012101432180002221009C
:104330002800AB689847E66027826660E2E7E0689D
:10434000C8218900321A8A42DCD34018E060208AF2
:10435000401C2082032221002800AB689847EEE72A
:10436000C107C0D5A168711A3229CBD334490140A5
:104370002180012221002800AB6898476068301A2C
:104380001438FF211A31884214D2207E00280ED022
:10439000022807DC6169711AC8225200914201D2D9
:1043A000401C05E0022221002800AB68984701204C
:1043B000666100E00020C1B2002909D0032907D1BD
:1043C00003202076022221002800AB6898470020B5
:1043D0002076B2E7F0B5002800D11A48002906D0AF
:1043E000140004D0059C250001D01D0001D100203F
:1043F000F0BD002500260027E0C005600C380160F4
:1044000082808460C360002000E0401C9042FCD3A6
:104410000120F0BD70B5002800D10A480024050035
:104420000E0007E032002868610141182800FFF7FC
:1044300049FF641CA8888442F4D3012070BD0000A9
:10444000FEFF000020060020007E7047008A7047B3
:1044500081B01D490A6802430A600968084000905B
:10446000009801B0704780B50120FFF7F1FF0220EE
:10447000FFF7EEFF01BDF8B586B018216846FCF7DE
:10448000F3FB0120FFF7E4FF0220FFF7E1FFA0208C
:10449000C005802181620D4F0224BC62009101267B
:1044A00001960025029503950494694600F000FEEC
:1044B000009401960295039504946946380000F033
:1044C000F7FD07B0F0BD00003410024000040050BA
:1044D00010B5002407480168820D0A4302600320DA
:1044E00000F036FE002801D0012401E000F056FE65
:1044F000200010BD0020024080B5012008490A6854
:1045000002430A60096808400090009800220021D8
:104510000920FDF776FD0920FDF778FD01BD00BFFC
:1045200038100240F0B595B0202107A8FCF79CFB9D
:1045300018216846FCF798FB18210FA8FCF794FB9C
:1045400001240F94002510950FA8FFF753FD0028B4
:1045500001D0FFF74BFD3748A103C2680A43C26090
:10456000C268114006910699016821430160006804
:10457000204006900698600200900226019602965E
:10458000039504940594A027FF056946380000F0C0
:104590008FFDA00200900196029603950494059465
:1045A0006946380000F084FD234801680902090AC1
:1045B0000160E006214908600795E120400208906B
:1045C00009950A950B950C200C900D950E951C4D98
:1045D00007A9280000F0FAFDEFF31080012181F314
:1045E0001088A968C900C908A96080F31088EFF392
:1045F0001080012181F31088A968124A0A40AA603C
:1046000080F31088286810490140296068680F49C4
:1046100001406960A8682A218843A860286804438B
:104620002C60E8698002FCD5E8694102C90FF8D026
:1046300015B0F0BD3410024018E400E000E100E0E5
:1046400000380140FFFFFFF1FFFFFFDFFFB7FFFF73
:1046500010B50422012901D1002120E0042901D153
:1046600001211CE0102901D1022118E0402901D1CB
:10467000032114E09301994201D104210FE01302B8
:10468000994201D105210AE09302994201D1062104
:1046900005E09303994201D1072100E00821183079
:1046A0006AA35B5CC01803686BA4615C8A40934397
:1046B000036010BD10B50822012901D1002120E0BE
:1046C000042901D101211CE0102901D1022118E0A7
:1046D000402901D1032114E05301994201D1042161
:1046E0000FE0D301994201D105210AE0530299421A
:1046F00001D1062105E05303994201D1072100E0D1
:104700000821183051A35B5CC018036852A4615C97
:104710008A401A43026010BD81B043490A680243CF
:104720000A60096808400090009801B070470000D6
:10473000F8B594B014210FA8FCF796FA202107A829
:10474000FCF792FA18216846FCF78EFA02253748E2
:1047500001682943016000682840069006983448A3
:104760000168FF2291430160E80332490860324842
:104770006946888700261096304811901296304C72
:104780000FA9200000F090FD8027206838432060AA
:10479000A0682C490140A16010212000FFF78AFF8A
:1047A0006020079008960996FA20C0000A900B95A1
:1047B00007AA1021200000F0B3FD10212000FFF710
:1047C00047FFA10C2000FFF775FF07AAA10C2000EE
:1047D00000F0A6FDA10C2000FFF73AFF60687021F1
:1047E00088436060A068B843A0600120FFF794FF91
:1047F0000220FFF791FF009701950295039604951B
:10480000012405946946A020C00500F051FC0095E4
:104810000195029503960495059469460A4800F0AF
:1048200047FC15B0F0BD0000341002403C100240BF
:1048300010E400E000E100E02F020000DB050000D2
:1048400000040040F8BFFEFF00040050000000001C
:104850000404043C3C0000000000080000000800C4
:104860000800000080B50748074901600121416048
:104870000649C1608160FEF71DFB002801D0FFF7EB
:10488000B5FB01BD1006002000300040FF0F000006
:10489000F8B584B007000020009000255420385C53
:1048A000012801D10220A5E03C00543401262670E5
:1048B0003800FEF75AFE69460871386881680E4074
:1048C00000D08FE061684C4A0A40022111436160C8
:1048D000C1684A4A0A400392C168494A0A40C26014
:1048E000029500210820474C3A68936823408026AF
:1048F00036061E4396603E68434BB268D20F0ED018
:10490000009A521C0092009A9A42F6D33800543012
:1049100041680222914310220A43426054E0B422CB
:10492000B2585206520EAD186D1C491C401EDBD108
:1049300048082818FCF77CF90125B1682140294373
:10494000B16039680A69920F920716D12F4A13682D
:10495000F02292031A40E0235B039A420DD3920C9B
:10496000D21E012393400093009A520801E0009A5E
:10497000521E0092009A002AF9D1B4310A687F23AE
:104980009A4310430860386881680C400221214333
:104990008160FDF73DF93C00039E070020688168B7
:1049A000294015D0FDF734F9C01B0228F6D920683C
:1049B00080682840F2D020005430416810220A4319
:1049C000426081680D43856002990170012011E009
:1049D000C1680E43C66054346068022188430543B1
:1049E000656003E060681021014361600020207071
:1049F0006846007905B0F0BDFFFEFFFF03800000B0
:104A0000FC7FFFFFE8FFFF7F00F202000827014064
:104A100010B50C00802189000D4A002810680CD0C8
:104A2000014001D100F035F80A48016804229143A1
:104A30000160012C08D130BF10BD0140F4D000F05E
:104A40002EF80028F0D010BD40BF20BF20BF10BD01
:104A50001470004010ED00E010B51E4C21681E4A95
:104A60000A4002432260610D884210D11B48006851
:104A7000062148431A49FCF7DBF8401C00E0401EC1
:104A80006169490503D50028F9D1032010BD002034
:104A900010BD10480168020C0A430260704700B55F
:104AA0000E480068062148430D49FCF7C1F8401C38
:104AB00008490A68064B13400B6000E0401E4A6933
:104AC000920503D50028F9D1032000BD002000BDC8
:104AD000FFBFFFFF00700040FFF9FFFF0C00002048
:104AE00040420F00FEB507001BD0A74C3878C00726
:104AF00019D5A16838200840E1688025AD0210284A
:104B000008D18807800F032806D078686908884292
:104B100034D13BE00828F8D12068054003D07868FC
:104B2000002800D1B3E13878800779D5A168382012
:104B30000840E168B84AB94E10284CD18907890F5E
:104B400002294AD0F8680028206800D193E002408A
:104B50003869104320602068A10D01432160FDF7F2
:104B600057F83D0007002068400500D57BE0FDF7C1
:104B70004FF8C01B0328F6D30320FEBDA022D202AB
:104B80009042206805D18A000243226020680143D8
:104B900005E0A349014021602068A249014021604D
:104BA000786800280BD0FDF733F80600206828400D
:104BB000B9D1FDF72DF8801B6528F7D3DCE7FDF7A9
:104BC00027F8060020682840ADD0FDF721F8801BAB
:104BD0006528F7D3D0E70028B4D12168490502D56C
:104BE000F96800293ED061680E40796909023143B5
:104BF000616000280ED120680240386910432060AF
:104C0000A448012122689204520F9140FCF710F849
:104C1000A1490860A148006800F09AFA002821D153
:104C20000226387800070AD5A068382101401829E3
:104C300030D1206E304002D0B869002812D03878C8
:104C4000400700D4A9E000200190A068382101406D
:104C5000202941D1E06D064000D19EE0B8680028CF
:104C600000D09AE013E160680640686900023043B2
:104C700060602F00D4E78A4901402160FCF7C8FF3B
:104C8000050020684005CBD5FCF7C2FF401B032878
:104C9000F7D371E7B8690028206E0ED001210143D7
:104CA0002166FCF7B5FF0500206E3040C7D1FCF748
:104CB000AFFF401B0328F7D35EE70121884320663E
:104CC000FCF7A6FF0500206E3040B8D0FCF7A0FF2F
:104CD000401B0328F7D34FE7F006E16B014008D1F2
:104CE000E16B0143E163E16B084000900098012013
:104CF00001906C4E3068C00512D4A00D0090306851
:104D0000009901433160FCF783FF0500306800998A
:104D1000014005D1FCF77CFF401B0328F6D32BE7AD
:104D2000B9680120012905D0052906D1E16D0422C9
:104D30000A43E265E16D084306E0E06D0121884326
:104D4000E065E06D04218843E0650226B86800282C
:104D50000CD0FCF75DFF0500E06D304016D1FCF78C
:104D600057FF401BA4498842F6D305E7FCF750FFE4
:104D70000500E06D304009D0FCF74AFF401B9E491A
:104D80008842F6D3F8E600BF0010024001980028E0
:104D900003D0E06B99490140E163F869002855D0E0
:104DA000A16838220A40102A52D08026B6049449BD
:104DB0000228206838D101402160FCF729FF050056
:104DC0002068304005D0FCF723FF401B0328F7D3B1
:104DD000D2E6E0688B490140386A0843796A0143AA
:104DE000B86A00020843F96A0143386B0843E0607F
:104DF0002068710801432160E068F1000143E1602F
:104E0000FCF706FF0500206830401FD1FCF700FFCB
:104E1000401B0328F7D3AFE6FFC7FFFFFF80FFFF6C
:104E2000FFFFFEFFFFFFFBFF01402160FCF7F0FEEC
:104E300005002068304005D0FCF7EAFE401B03283F
:104E4000F7D399E6E06891490140E1600020FEBD9A
:104E500001281CD0E0688107890F3A6A914216D177
:104E6000702101407A6A914211D1FE21C9010140AD
:104E7000BA6A120291420AD1F82189030140FA6A02
:104E8000914204D1400F4007396B8842DED00120A7
:104E9000FEBD00000024F4000C00002008000020EB
:104EA000FFFEFFFF00700040F8B5070066D00091DC
:104EB000774800684007400F884218D2744E306827
:104EC00007218843009901433160FCF7A1FE009C53
:104ED000050030684007400FA04207D0FCF798FE5D
:104EE000401B45498842F4D30320F2BD0094396841
:104EF000694D022001420CD0490704D5A968E0227F
:104F0000D2010A43AA60A968624A0A40B9681143FB
:104F1000A9600726F6433978C90732D5796801298F
:104F200018D12868800329D5A86830400143A960BA
:104F3000FCF76EFE3C000700A8683821014060685D
:104F4000C00081421CD0FCF763FEC01B2A49884286
:104F5000F2D3C9E7022902D12868800103E00029C1
:104F600003D128684005DFD408E0032903D12A6E65
:104F70001040D9D102E0EA6D1040D5D10120F2BD38
:104F800027000098424909684907490F884217D20B
:104F90003F4800680640009830433D490860FCF7F0
:104FA00037FE009C06003A4800684007400FA042C8
:104FB00006D0FCF72DFE801B0F498842F3D393E700
:104FC0003878400705D5A86834490140F868084397
:104FD000A86000F019F83249AA681205120F920071
:104FE000895CC906C90EC8402E4908602E48006871
:104FF00000F0AEF8F2BD000089130000FFFFFFEFE4
:10500000FFFFFFFE8C80C11F30B507212748224CCF
:105010003823A2681A4006D123680122DB0A19400E
:105020008A4011001EE04208A5681D40082D01D1EC
:10503000100030BDA5681D40102D16D1E368E5684D
:105040002D092940491C7F259B079B0F032B00D16D
:105050001000FBF7EDFDE168090A0D406843E168C7
:10506000490F491CFBF7E4FD30BDA068184020281B
:1050700002D18020000230BDA0680340182B02D16D
:10508000FA20C00130BD002030BD0000FCFFFEEF63
:1050900000200240FFF0FFFF00100240FF8FFFFFE3
:1050A000605E00080C000020080000200024F400CE
:1050B000F8B5002246E02D0A2F006F436F436F437F
:1050C000456A3E01F61BB543009E77432F43476276
:1050D00031E0012595401D4033D02B006B435C002F
:1050E000E618F4434E68012E01D0022E0BD18668DB
:1050F00026408F685F43374387604668AE43CF687A
:105100006F4337434760C66826400F695F433743A4
:10511000C7604E68022E0ED14E690096FF2DCAD888
:105120001E006E436E43056A3701BF1BBD43009FDF
:105130007E432E43066205682C404D686B43234333
:105140000360521C0B681C00D440C2D10020F2BD89
:1051500070B5060000240F4D2978002916D0FA20DA
:105160008000FBF765FD01000B480068FBF760FD60
:10517000FCF75EFF002809D1042E07D2002231007F
:105180000020C043FCF73DFFAE6000E0012420009A
:1051900070BD00BF000000200C00002081B00A4854
:1051A000012142680A43426042681140009100991F
:1051B0008021490502680A430260006801400091AD
:1051C000009801B0704700BF3C100240FEB50400DB
:1051D000012001252268104055D10E0020682D497C
:1051E0000140B06808433169014370690843F169BF
:1051F00001432160606828490140F068084360600D
:10520000A06826490140B0690843A0601F48844255
:1052100003D1032000F0F5F906E01D4884422BD1AC
:10522000684600F0E2F90298002825D07768002F40
:1052300022D0002531680C291ED2194A0906890D91
:105240005158FBF7F5FC7908F26980231B029A425A
:105250000CD1400040183900FBF7EAFC80B211493C
:1052600001400007400F0143E16005E040183900AC
:10527000FBF7DEFC80B2E060E06A0F218843316812
:1052800089B20843E0622800FEBD000000380140FA
:1052900000440040F369FFEFFFCFFFFFFFFCFFFF7B
:1052A000205E0008F0FF0000F0B502681B4B1A4CAE
:1052B000174D164EB04201D0A84206D17027BA430E
:1052C00017004A683A43B04208D0A84206D0114DB0
:1052D000A84203D0A04201D0984203D1AC4D154062
:1052E000CA682A4302608A68C2620A888262B0423F
:1052F00003D0A04201D0984201D1096901634169FC
:1053000001220A4342610020F0BD0000002C014050
:1053100000040040002000400044014000480140DB
:10532000F3B501259B4B9C499C4C019E761E11D0E8
:105330000F3E42D0F03E78D0F0273F01F61B00D15F
:10534000AAE03F01F61B00D1CDE03F01F61B00D1E2
:10535000F3E01BE10123DB43046A1C400462076A9B
:10536000446885698E4E2E40156835430226B74342
:1053700016693E43334056681E438C4B984205D015
:105380008B4B984202D0874B984211D108239E4301
:1053900053699B0033430426B3439668B6001E430B
:1053A000814B234094691C432140D3695C000C432A
:1053B00044608561D168416335E01024E443016AAB
:1053C00021400162066A456881697A4F0F40116881
:1053D000090239432027BE4317693F0137433C4048
:1053E000566836012643714CA04205D0704CA0424D
:1053F00002D06C4CA04212D18024A6435469A4016F
:1054000034434026B4439668B60126436A4C2C4088
:105410009569AD0025432B40D469E5001D434560E7
:105420008161D16881630662AFE0056A5E4E2E40FD
:105430000662056A00954568C669594F3740166887
:105440003E43009F394017693F020F435649394098
:1054500057683F020F435549884205D05449884256
:1054600002D05049884211D13B4051698902194309
:10547000514B0B4091688F021F435049294093695B
:105480001B010B431C40D1694D0125434560C6619A
:10549000D168C163076278E0484B016A1940016234
:1054A000066A4568C169434F0F40116809023943D4
:1054B00034401669360326433340546824031C43A2
:1054C0003A4B984205D03A4B984202D0354B98421D
:1054D00004D13B4B2B409569AD011D434560C16133
:1054E000D168016450E03749036A0B400362056AE2
:1054F000436D354C1C4013682343344C2C401569D4
:105500002D0425430D40546824042C43274DA84204
:1055100005D0274DA84202D0224DA84205D14568AA
:10552000294095692D020D4345604365816D090C45
:105530000904D2680A43826526E0254B016A1940B6
:105540000162046A416D234D0D401168090229432F
:10555000214D2540146924052C432340546824051B
:105560001C43124B984205D0114B984202D00D4B70
:10557000984206D14368194D1D4093699B022B4305
:1055800043604165D168C165046200252800F6BD0D
:10559000FFFCFFFFFFF7FFFFFFFDFFFFFFDFFFFF48
:1055A0008CFFFEFF00480140FFFEFFFF002C014082
:1055B00000440140FF8CFFFEFFFBFFFFFFEFFFFFFA
:1055C000FFBFFFFFFFFFFEFF8FFFFEFFFFFFFDFF9F
:1055D000FFFFEFFFFF8FFFFEFFFFDFFFFFFFFBFF80
:1055E0003A4800684004400E704710B5040000F0CF
:1055F00032F8206000F058F8606000F05BF8A060BE
:1056000010BD01000020032900D0704780B530494B
:105610004A6D9207920FC0239B0213432D4A9B1A97
:1056200004D05B1E05D05B1E08D00DE000F013F81F
:1056300002BD096849050DD5274802BDC96D890716
:1056400008D58020000202BD00F005F800F02CF81B
:1056500000F030F802BD70B51D4DA96807241E4E3C
:10566000700838220A40082A1DD0102A13D1E96890
:105670008907890F032900D10600FFF7B1FFE96808
:10568000ED684643300009090C40611CFBF7D0FA75
:10569000690F491C05E02A6830000121D20A144034
:1056A000A140FBF7C5FA70BD0C4909680C4A090511
:1056B000090F04E0094909680A4A4904490F8900A9
:1056C000515CC906C90EC840704700000C1002406A
:1056D00000100240010003000024F4000810024002
:1056E000605E0008885F0008C83A07004B45070065
:1056F000CF4F0700525A0700D6640700596F0700C2
:10570000DD79070060840700E38E070067990700D2
:10571000EAA307006EAE0700F1B8070075C30700E3
:10572000F8CD07007BD80700FFE2070082ED0700F5
:1057300006F80700890208000D0D08009017080000
:1057400013220800972C08001A3708009E41080011
:10575000214C0800A556080028610800AB6B080022
:105760002F760800B2800800368B0800B995080033
:105770003DA00800C0AA080043B50800C7BF080044
:105780004ACA0800CED4080051DF0800D5E9080055
:1057900058F40800DBFE08005F090900E213090065
:1057A000661E0900E92809006D330900F03D090073
:1057B00073480900F75209007A5D0900FE67090085
:1057C00081720900057D0900888709000B92090094
:1057D0008F9C090012A7090096B1090019BC0900A5
:1057E0009DC6090020D10900A3DB090027E60900B6
:1057F000AAF009002EFB0900B1050A0035100A00C5
:10580000B81A0A003B250A00BF2F0A00423A0A00D4
:10581000C6440A00494F0A00CD590A0050640A00E4
:10582000D36E0A0057790A00DA830A005E8E0A00F6
:10583000E1980A0065A30A00E8AD0A006BB80A0007
:10584000EFC20A0072CD0A00F6D70A0079E20A0018
:10585000FDEC0A0080F70A0003020B00870C0B0026
:105860000A170B008E210B00112C0B0095360B0034
:1058700018410B009B4B0B001F560B0013610600D9
:105880003C6A060066730600907C0600BA85060036
:10589000E38E06000D98060037A1060060AA0600F8
:1058A0008AB30600B4BC0600DEC5060007CF0600BA
:1058B00031D806005BE1060084EA0600AEF306007C
:1058C000D8FC0600020607002B0F0700551807003A
:1058D0007F210700A82A0700D2330700FC3C0700FD
:1058E000264607004F4F070079580700A3610700BD
:1058F000CC6A0700F6730700207D07004A86070080
:10590000738F07009D980700C7A10700F0AA070042
:105910001AB4070044BD07006EC6070097CF070002
:10592000C1D80700EBE1070014EB07003EF40700C5
:1059300068FD070092060800BB0F0800E518080084
:105940000F220800382B0800623408008C3D080044
:10595000B6460800DF4F0800095908003362080006
:105960005C6B080086740800B07D0800DA860800C9
:10597000039008002D99080057A2080080AB08008A
:10598000AAB40800D4BD0800FEC6080027D008004D
:1059900051D908007BE20800A4EB0800CEF408000F
:1059A000F8FD0800220709004B10090075190900CD
:1059B0009F220900C82B0900F23409001C3E09008F
:1059C000464709006F50090099590900C362090050
:1059D000EC6B090016750900407E09006A87090012
:1059E00093900900BD990900E7A2090010AC0900D5
:1059F0003AB5090064BE09008EC70900B7D0090096
:105A0000E1D909000BE3090034EC09005EF5090057
:105A1000ED01FB0108021502230230023E024B0297
:105A200059026602740281028F029C02AA02B70226
:105A3000C502D202E002ED02FB0208031603A80130
:105A4000B501C201CF01DD01EA01F801050213022F
:105A500020022E023B0249025602640271027F02BA
:105A60008C029A02A702B502C202D00222013101C1
:105A700040014F015E016D017C018B019A01A9017A
:105A8000B801C701D601E501F401030212022102A7
:105A900030023F024E025D026C02180127013601FE
:105AA0004501540163017201810190019F01AE0122
:105AB000BD01CC01DB01EA01F9010802170226024F
:105AC00035024402530262022201310140014F01BA
:105AD0005E016D017C018B019A01A901B801C7012A
